{
  "_format": "hh-sol-artifact-1",
  "contractName": "IndividualNFTCollection",
  "sourceName": "contracts/IndividualNFTCollection.sol",
  "abi": [
    {
      "inputs": [
        {
          "internalType": "string",
          "name": "_name",
          "type": "string"
        },
        {
          "internalType": "string",
          "name": "_symbol",
          "type": "string"
        },
        {
          "internalType": "string",
          "name": "_description",
          "type": "string"
        },
        {
          "internalType": "uint256",
          "name": "_maxSupply",
          "type": "uint256"
        },
        {
          "internalType": "uint256",
          "name": "_mintPrice",
          "type": "uint256"
        },
        {
          "internalType": "address",
          "name": "_creator",
          "type": "address"
        },
        {
          "internalType": "address",
          "name": "_factory",
          "type": "address"
        }
      ],
      "stateMutability": "nonpayable",
      "type": "constructor"
    },
    {
      "inputs": [
        {
          "internalType": "address",
          "name": "sender",
          "type": "address"
        },
        {
          "internalType": "uint256",
          "name": "tokenId",
          "type": "uint256"
        },
        {
          "internalType": "address",
          "name": "owner",
          "type": "address"
        }
      ],
      "name": "ERC721IncorrectOwner",
      "type": "error"
    },
    {
      "inputs": [
        {
          "internalType": "address",
          "name": "operator",
          "type": "address"
        },
        {
          "internalType": "uint256",
          "name": "tokenId",
          "type": "uint256"
        }
      ],
      "name": "ERC721InsufficientApproval",
      "type": "error"
    },
    {
      "inputs": [
        {
          "internalType": "address",
          "name": "approver",
          "type": "address"
        }
      ],
      "name": "ERC721InvalidApprover",
      "type": "error"
    },
    {
      "inputs": [
        {
          "internalType": "address",
          "name": "operator",
          "type": "address"
        }
      ],
      "name": "ERC721InvalidOperator",
      "type": "error"
    },
    {
      "inputs": [
        {
          "internalType": "address",
          "name": "owner",
          "type": "address"
        }
      ],
      "name": "ERC721InvalidOwner",
      "type": "error"
    },
    {
      "inputs": [
        {
          "internalType": "address",
          "name": "receiver",
          "type": "address"
        }
      ],
      "name": "ERC721InvalidReceiver",
      "type": "error"
    },
    {
      "inputs": [
        {
          "internalType": "address",
          "name": "sender",
          "type": "address"
        }
      ],
      "name": "ERC721InvalidSender",
      "type": "error"
    },
    {
      "inputs": [
        {
          "internalType": "uint256",
          "name": "tokenId",
          "type": "uint256"
        }
      ],
      "name": "ERC721NonexistentToken",
      "type": "error"
    },
    {
      "inputs": [
        {
          "internalType": "address",
          "name": "owner",
          "type": "address"
        }
      ],
      "name": "OwnableInvalidOwner",
      "type": "error"
    },
    {
      "inputs": [
        {
          "internalType": "address",
          "name": "account",
          "type": "address"
        }
      ],
      "name": "OwnableUnauthorizedAccount",
      "type": "error"
    },
    {
      "inputs": [],
      "name": "ReentrancyGuardReentrantCall",
      "type": "error"
    },
    {
      "anonymous": false,
      "inputs": [
        {
          "indexed": true,
          "internalType": "address",
          "name": "owner",
          "type": "address"
        },
        {
          "indexed": true,
          "internalType": "address",
          "name": "approved",
          "type": "address"
        },
        {
          "indexed": true,
          "internalType": "uint256",
          "name": "tokenId",
          "type": "uint256"
        }
      ],
      "name": "Approval",
      "type": "event"
    },
    {
      "anonymous": false,
      "inputs": [
        {
          "indexed": true,
          "internalType": "address",
          "name": "owner",
          "type": "address"
        },
        {
          "indexed": true,
          "internalType": "address",
          "name": "operator",
          "type": "address"
        },
        {
          "indexed": false,
          "internalType": "bool",
          "name": "approved",
          "type": "bool"
        }
      ],
      "name": "ApprovalForAll",
      "type": "event"
    },
    {
      "anonymous": false,
      "inputs": [
        {
          "indexed": false,
          "internalType": "uint256",
          "name": "_fromTokenId",
          "type": "uint256"
        },
        {
          "indexed": false,
          "internalType": "uint256",
          "name": "_toTokenId",
          "type": "uint256"
        }
      ],
      "name": "BatchMetadataUpdate",
      "type": "event"
    },
    {
      "anonymous": false,
      "inputs": [],
      "name": "CollectionCompleted",
      "type": "event"
    },
    {
      "anonymous": false,
      "inputs": [],
      "name": "CollectionPaused",
      "type": "event"
    },
    {
      "anonymous": false,
      "inputs": [],
      "name": "CollectionResumed",
      "type": "event"
    },
    {
      "anonymous": false,
      "inputs": [
        {
          "indexed": false,
          "internalType": "uint256",
          "name": "_tokenId",
          "type": "uint256"
        }
      ],
      "name": "MetadataUpdate",
      "type": "event"
    },
    {
      "anonymous": false,
      "inputs": [
        {
          "indexed": true,
          "internalType": "uint256",
          "name": "tokenId",
          "type": "uint256"
        },
        {
          "indexed": true,
          "internalType": "address",
          "name": "to",
          "type": "address"
        },
        {
          "indexed": false,
          "internalType": "string",
          "name": "tokenURI",
          "type": "string"
        }
      ],
      "name": "NFTMinted",
      "type": "event"
    },
    {
      "anonymous": false,
      "inputs": [
        {
          "indexed": true,
          "internalType": "address",
          "name": "previousOwner",
          "type": "address"
        },
        {
          "indexed": true,
          "internalType": "address",
          "name": "newOwner",
          "type": "address"
        }
      ],
      "name": "OwnershipTransferred",
      "type": "event"
    },
    {
      "anonymous": false,
      "inputs": [
        {
          "indexed": true,
          "internalType": "address",
          "name": "from",
          "type": "address"
        },
        {
          "indexed": true,
          "internalType": "address",
          "name": "to",
          "type": "address"
        },
        {
          "indexed": true,
          "internalType": "uint256",
          "name": "tokenId",
          "type": "uint256"
        }
      ],
      "name": "Transfer",
      "type": "event"
    },
    {
      "inputs": [
        {
          "internalType": "address",
          "name": "to",
          "type": "address"
        },
        {
          "internalType": "uint256",
          "name": "tokenId",
          "type": "uint256"
        }
      ],
      "name": "approve",
      "outputs": [],
      "stateMutability": "nonpayable",
      "type": "function"
    },
    {
      "inputs": [
        {
          "internalType": "address",
          "name": "owner",
          "type": "address"
        }
      ],
      "name": "balanceOf",
      "outputs": [
        {
          "internalType": "uint256",
          "name": "",
          "type": "uint256"
        }
      ],
      "stateMutability": "view",
      "type": "function"
    },
    {
      "inputs": [
        {
          "internalType": "address",
          "name": "to",
          "type": "address"
        },
        {
          "internalType": "string[]",
          "name": "tokenURIs",
          "type": "string[]"
        }
      ],
      "name": "batchMint",
      "outputs": [],
      "stateMutability": "payable",
      "type": "function"
    },
    {
      "inputs": [],
      "name": "collectionDescription",
      "outputs": [
        {
          "internalType": "string",
          "name": "",
          "type": "string"
        }
      ],
      "stateMutability": "view",
      "type": "function"
    },
    {
      "inputs": [],
      "name": "createdAt",
      "outputs": [
        {
          "internalType": "uint256",
          "name": "",
          "type": "uint256"
        }
      ],
      "stateMutability": "view",
      "type": "function"
    },
    {
      "inputs": [],
      "name": "creator",
      "outputs": [
        {
          "internalType": "address",
          "name": "",
          "type": "address"
        }
      ],
      "stateMutability": "view",
      "type": "function"
    },
    {
      "inputs": [],
      "name": "factory",
      "outputs": [
        {
          "internalType": "address",
          "name": "",
          "type": "address"
        }
      ],
      "stateMutability": "view",
      "type": "function"
    },
    {
      "inputs": [
        {
          "internalType": "uint256",
          "name": "tokenId",
          "type": "uint256"
        }
      ],
      "name": "getApproved",
      "outputs": [
        {
          "internalType": "address",
          "name": "",
          "type": "address"
        }
      ],
      "stateMutability": "view",
      "type": "function"
    },
    {
      "inputs": [],
      "name": "getCollectionInfo",
      "outputs": [
        {
          "internalType": "string",
          "name": "collectionName",
          "type": "string"
        },
        {
          "internalType": "string",
          "name": "collectionSymbol",
          "type": "string"
        },
        {
          "internalType": "string",
          "name": "description",
          "type": "string"
        },
        {
          "internalType": "uint256",
          "name": "currentSupply",
          "type": "uint256"
        },
        {
          "internalType": "uint256",
          "name": "_maxSupply",
          "type": "uint256"
        },
        {
          "internalType": "uint256",
          "name": "_mintPrice",
          "type": "uint256"
        },
        {
          "internalType": "address",
          "name": "_creator",
          "type": "address"
        },
        {
          "internalType": "uint256",
          "name": "_createdAt",
          "type": "uint256"
        },
        {
          "internalType": "bool",
          "name": "_isActive",
          "type": "bool"
        }
      ],
      "stateMutability": "view",
      "type": "function"
    },
    {
      "inputs": [],
      "name": "isActive",
      "outputs": [
        {
          "internalType": "bool",
          "name": "",
          "type": "bool"
        }
      ],
      "stateMutability": "view",
      "type": "function"
    },
    {
      "inputs": [
        {
          "internalType": "address",
          "name": "owner",
          "type": "address"
        },
        {
          "internalType": "address",
          "name": "operator",
          "type": "address"
        }
      ],
      "name": "isApprovedForAll",
      "outputs": [
        {
          "internalType": "bool",
          "name": "",
          "type": "bool"
        }
      ],
      "stateMutability": "view",
      "type": "function"
    },
    {
      "inputs": [],
      "name": "maxSupply",
      "outputs": [
        {
          "internalType": "uint256",
          "name": "",
          "type": "uint256"
        }
      ],
      "stateMutability": "view",
      "type": "function"
    },
    {
      "inputs": [
        {
          "internalType": "address",
          "name": "to",
          "type": "address"
        },
        {
          "internalType": "string",
          "name": "_tokenURI",
          "type": "string"
        }
      ],
      "name": "mint",
      "outputs": [],
      "stateMutability": "payable",
      "type": "function"
    },
    {
      "inputs": [],
      "name": "mintPrice",
      "outputs": [
        {
          "internalType": "uint256",
          "name": "",
          "type": "uint256"
        }
      ],
      "stateMutability": "view",
      "type": "function"
    },
    {
      "inputs": [],
      "name": "name",
      "outputs": [
        {
          "internalType": "string",
          "name": "",
          "type": "string"
        }
      ],
      "stateMutability": "view",
      "type": "function"
    },
    {
      "inputs": [],
      "name": "owner",
      "outputs": [
        {
          "internalType": "address",
          "name": "",
          "type": "address"
        }
      ],
      "stateMutability": "view",
      "type": "function"
    },
    {
      "inputs": [
        {
          "internalType": "uint256",
          "name": "tokenId",
          "type": "uint256"
        }
      ],
      "name": "ownerOf",
      "outputs": [
        {
          "internalType": "address",
          "name": "",
          "type": "address"
        }
      ],
      "stateMutability": "view",
      "type": "function"
    },
    {
      "inputs": [],
      "name": "pause",
      "outputs": [],
      "stateMutability": "nonpayable",
      "type": "function"
    },
    {
      "inputs": [],
      "name": "renounceOwnership",
      "outputs": [],
      "stateMutability": "nonpayable",
      "type": "function"
    },
    {
      "inputs": [],
      "name": "resume",
      "outputs": [],
      "stateMutability": "nonpayable",
      "type": "function"
    },
    {
      "inputs": [
        {
          "internalType": "address",
          "name": "from",
          "type": "address"
        },
        {
          "internalType": "address",
          "name": "to",
          "type": "address"
        },
        {
          "internalType": "uint256",
          "name": "tokenId",
          "type": "uint256"
        }
      ],
      "name": "safeTransferFrom",
      "outputs": [],
      "stateMutability": "nonpayable",
      "type": "function"
    },
    {
      "inputs": [
        {
          "internalType": "address",
          "name": "from",
          "type": "address"
        },
        {
          "internalType": "address",
          "name": "to",
          "type": "address"
        },
        {
          "internalType": "uint256",
          "name": "tokenId",
          "type": "uint256"
        },
        {
          "internalType": "bytes",
          "name": "data",
          "type": "bytes"
        }
      ],
      "name": "safeTransferFrom",
      "outputs": [],
      "stateMutability": "nonpayable",
      "type": "function"
    },
    {
      "inputs": [
        {
          "internalType": "address",
          "name": "operator",
          "type": "address"
        },
        {
          "internalType": "bool",
          "name": "approved",
          "type": "bool"
        }
      ],
      "name": "setApprovalForAll",
      "outputs": [],
      "stateMutability": "nonpayable",
      "type": "function"
    },
    {
      "inputs": [
        {
          "internalType": "bytes4",
          "name": "interfaceId",
          "type": "bytes4"
        }
      ],
      "name": "supportsInterface",
      "outputs": [
        {
          "internalType": "bool",
          "name": "",
          "type": "bool"
        }
      ],
      "stateMutability": "view",
      "type": "function"
    },
    {
      "inputs": [],
      "name": "symbol",
      "outputs": [
        {
          "internalType": "string",
          "name": "",
          "type": "string"
        }
      ],
      "stateMutability": "view",
      "type": "function"
    },
    {
      "inputs": [
        {
          "internalType": "uint256",
          "name": "tokenId",
          "type": "uint256"
        }
      ],
      "name": "tokenURI",
      "outputs": [
        {
          "internalType": "string",
          "name": "",
          "type": "string"
        }
      ],
      "stateMutability": "view",
      "type": "function"
    },
    {
      "inputs": [],
      "name": "totalSupply",
      "outputs": [
        {
          "internalType": "uint256",
          "name": "",
          "type": "uint256"
        }
      ],
      "stateMutability": "view",
      "type": "function"
    },
    {
      "inputs": [
        {
          "internalType": "address",
          "name": "from",
          "type": "address"
        },
        {
          "internalType": "address",
          "name": "to",
          "type": "address"
        },
        {
          "internalType": "uint256",
          "name": "tokenId",
          "type": "uint256"
        }
      ],
      "name": "transferFrom",
      "outputs": [],
      "stateMutability": "nonpayable",
      "type": "function"
    },
    {
      "inputs": [
        {
          "internalType": "address",
          "name": "newOwner",
          "type": "address"
        }
      ],
      "name": "transferOwnership",
      "outputs": [],
      "stateMutability": "nonpayable",
      "type": "function"
    },
    {
      "inputs": [
        {
          "internalType": "uint256",
          "name": "_newPrice",
          "type": "uint256"
        }
      ],
      "name": "updateMintPrice",
      "outputs": [],
      "stateMutability": "nonpayable",
      "type": "function"
    }
  ],
  "bytecode": "0x60806040523480156200001157600080fd5b506040516200275c3803806200275c833981016040819052620000349162000236565b81878760006200004583826200038f565b5060016200005482826200038f565b5050506001600160a01b0381166200008657604051631e4fbdf760e01b81526000600482015260240160405180910390fd5b620000918162000102565b506001600855600a620000a586826200038f565b50600b93909355600c91909155600d80546001600160a01b0319166001600160a01b03928316179055600f805442600e556001600160a81b031916610100929093169190910260ff1916919091176001179055506200045b915050565b600780546001600160a01b038381166001600160a01b0319831681179093556040519116919082907f8be0079c531659141344cd1fd0a4f28419497f9722a3daafe3b4186f6b6457e090600090a35050565b634e487b7160e01b600052604160045260246000fd5b600082601f8301126200017c57600080fd5b81516001600160401b038082111562000199576200019962000154565b604051601f8301601f19908116603f01168101908282118183101715620001c457620001c462000154565b81604052838152602092508683858801011115620001e157600080fd5b600091505b83821015620002055785820183015181830184015290820190620001e6565b600093810190920192909252949350505050565b80516001600160a01b03811681146200023157600080fd5b919050565b600080600080600080600060e0888a0312156200025257600080fd5b87516001600160401b03808211156200026a57600080fd5b620002788b838c016200016a565b985060208a01519150808211156200028f57600080fd5b6200029d8b838c016200016a565b975060408a0151915080821115620002b457600080fd5b50620002c38a828b016200016a565b9550506060880151935060808801519250620002e260a0890162000219565b9150620002f260c0890162000219565b905092959891949750929550565b600181811c908216806200031557607f821691505b6020821081036200033657634e487b7160e01b600052602260045260246000fd5b50919050565b601f8211156200038a57600081815260208120601f850160051c81016020861015620003655750805b601f850160051c820191505b81811015620003865782815560010162000371565b5050505b505050565b81516001600160401b03811115620003ab57620003ab62000154565b620003c381620003bc845462000300565b846200033c565b602080601f831160018114620003fb5760008415620003e25750858301515b600019600386901b1c1916600185901b17855562000386565b600085815260208120601f198616915b828110156200042c578886015182559484019460019091019084016200040b565b50858210156200044b5787850151600019600388901b60f8161c191681555b5050505050600190811b01905550565b6122f1806200046b6000396000f3fe6080604052600436106101cc5760003560e01c8063715018a6116100f7578063c87b56dd11610095578063e2c6875c11610064578063e2c6875c146104f1578063e985e9c514610506578063f2f18baa14610526578063f2fde38b1461053957600080fd5b8063c87b56dd14610492578063cf09e0d0146104b2578063d0def521146104c8578063d5abeb01146104db57600080fd5b806395d89b41116100d157806395d89b4114610418578063a22cb4651461042d578063b88d4fde1461044d578063c45a01551461046d57600080fd5b8063715018a6146103d05780638456cb59146103e55780638da5cb5b146103fa57600080fd5b806318160ddd1161016f57806342842e0e1161013e57806342842e0e1461035a5780636352211e1461037a5780636817c76c1461039a57806370a08231146103b057600080fd5b806318160ddd146102d75780631a77447c146102f657806322f3e2d41461032057806323b872dd1461033a57600080fd5b8063046f7da2116101ab578063046f7da21461026057806306fdde0314610275578063081812fc14610297578063095ea7b3146102b757600080fd5b8062728e46146101d157806301ffc9a7146101f357806302d05d3f14610228575b600080fd5b3480156101dd57600080fd5b506101f16101ec366004611bb8565b610559565b005b3480156101ff57600080fd5b5061021361020e366004611be7565b6105bd565b60405190151581526020015b60405180910390f35b34801561023457600080fd5b50600d54610248906001600160a01b031681565b6040516001600160a01b03909116815260200161021f565b34801561026c57600080fd5b506101f16105ce565b34801561028157600080fd5b5061028a6106be565b60405161021f9190611c54565b3480156102a357600080fd5b506102486102b2366004611bb8565b610750565b3480156102c357600080fd5b506101f16102d2366004611c83565b610779565b3480156102e357600080fd5b506009545b60405190815260200161021f565b34801561030257600080fd5b5061030b610788565b60405161021f99989796959493929190611cad565b34801561032c57600080fd5b50600f546102139060ff1681565b34801561034657600080fd5b506101f1610355366004611d29565b610878565b34801561036657600080fd5b506101f1610375366004611d29565b610903565b34801561038657600080fd5b50610248610395366004611bb8565b610923565b3480156103a657600080fd5b506102e8600c5481565b3480156103bc57600080fd5b506102e86103cb366004611d65565b61092e565b3480156103dc57600080fd5b506101f1610976565b3480156103f157600080fd5b506101f161098a565b34801561040657600080fd5b506007546001600160a01b0316610248565b34801561042457600080fd5b5061028a610a24565b34801561043957600080fd5b506101f1610448366004611d80565b610a33565b34801561045957600080fd5b506101f1610468366004611e5b565b610a3e565b34801561047957600080fd5b50600f546102489061010090046001600160a01b031681565b34801561049e57600080fd5b5061028a6104ad366004611bb8565b610a56565b3480156104be57600080fd5b506102e8600e5481565b6101f16104d6366004611ef7565b610a61565b3480156104e757600080fd5b506102e8600b5481565b3480156104fd57600080fd5b5061028a610d3f565b34801561051257600080fd5b50610213610521366004611f45565b610dcd565b6101f1610534366004611f78565b610dfb565b34801561054557600080fd5b506101f1610554366004611d65565b6111ae565b600d546001600160a01b031633146105b85760405162461bcd60e51b815260206004820152601d60248201527f4f6e6c792063726561746f722063616e2075706461746520707269636500000060448201526064015b60405180910390fd5b600c55565b60006105c8826111ec565b92915050565b600d546001600160a01b03163314806105f65750600f5461010090046001600160a01b031633145b6106335760405162461bcd60e51b815260206004820152600e60248201526d139bdd08185d5d1a1bdc9a5e995960921b60448201526064016105af565b600b54600954106106865760405162461bcd60e51b815260206004820152601e60248201527f436f6c6c656374696f6e20697320616c726561647920636f6d706c657465000060448201526064016105af565b600f805460ff191660011790556040517f300638d2e7a06a0a0ae1f95291b2e537cfc4f07bc3d5254fa480a64daa9a5d8f90600090a1565b6060600080546106cd9061204e565b80601f01602080910402602001604051908101604052809291908181526020018280546106f99061204e565b80156107465780601f1061071b57610100808354040283529160200191610746565b820191906000526020600020905b81548152906001019060200180831161072957829003601f168201915b5050505050905090565b600061075b82611211565b506000828152600460205260409020546001600160a01b03166105c8565b61078482823361124a565b5050565b606080606060008060008060008061079e6106be565b6107a6610a24565b600954600b54600c54600d54600e54600f54600a805490969594936001600160a01b0316929160ff169087906107db9061204e565b80601f01602080910402602001604051908101604052809291908181526020018280546108079061204e565b80156108545780601f1061082957610100808354040283529160200191610854565b820191906000526020600020905b81548152906001019060200180831161083757829003601f168201915b50505050509650985098509850985098509850985098509850909192939495969798565b6001600160a01b0382166108a257604051633250574960e11b8152600060048201526024016105af565b60006108af838333611257565b9050836001600160a01b0316816001600160a01b0316146108fd576040516364283d7b60e01b81526001600160a01b03808616600483015260248201849052821660448201526064016105af565b50505050565b61091e83838360405180602001604052806000815250610a3e565b505050565b60006105c882611211565b60006001600160a01b03821661095a576040516322718ad960e21b8152600060048201526024016105af565b506001600160a01b031660009081526003602052604090205490565b61097e611350565b610988600061137d565b565b600d546001600160a01b03163314806109b25750600f5461010090046001600160a01b031633145b6109ef5760405162461bcd60e51b815260206004820152600e60248201526d139bdd08185d5d1a1bdc9a5e995960921b60448201526064016105af565b600f805460ff191690556040517fe144b2ec5198b2cdbdc5c46f7adccc5437e914800657594a013966ce7ea7a17d90600090a1565b6060600180546106cd9061204e565b6107843383836113cf565b610a49848484610878565b6108fd338585858561146e565b60606105c882611599565b610a696116aa565b600f5460ff16610ab35760405162461bcd60e51b8152602060048201526015602482015274436f6c6c656374696f6e206e6f742061637469766560581b60448201526064016105af565b600c54341015610afc5760405162461bcd60e51b8152602060048201526014602482015273125b9cdd59999a58da595b9d081c185e5b595b9d60621b60448201526064016105af565b600b5460095410610b445760405162461bcd60e51b815260206004820152601260248201527110dbdb1b1958dd1a5bdb881a5cc8199d5b1b60721b60448201526064016105af565b6000815111610b915760405162461bcd60e51b8152602060048201526019602482015278546f6b656e205552492063616e6e6f7420626520656d70747960381b60448201526064016105af565b60098054906000610ba18361209e565b9091555050600954610bb383826116d4565b610bbd81836116ee565b826001600160a01b0316817f06becd955c918828f6e985541acbf49cc842c9e9bd569fffc7698e721ef1357584604051610bf79190611c54565b60405180910390a3600b5460095410610c3e57600f805460ff191690556040517f22d0bc987814df8bd24a0398bfee03d04bc0b2372ded2e4db24e8092fb28c60d90600090a15b600c54341115610c8557600c5433906108fc90610c5b90346120b7565b6040518115909202916000818181858888f19350505050158015610c83573d6000803e3d6000fd5b505b60006064600c54610c9691906120ca565b9050600081600c54610ca891906120b7565b90508015610cec57600d546040516001600160a01b039091169082156108fc029083906000818181858888f19350505050158015610cea573d6000803e3d6000fd5b505b8115610d3257600f546040516101009091046001600160a01b0316906108fc8415029084906000818181858888f19350505050158015610d30573d6000803e3d6000fd5b505b5050506107846001600855565b600a8054610d4c9061204e565b80601f0160208091040260200160405190810160405280929190818152602001828054610d789061204e565b8015610dc55780601f10610d9a57610100808354040283529160200191610dc5565b820191906000526020600020905b815481529060010190602001808311610da857829003601f168201915b505050505081565b6001600160a01b03918216600090815260056020908152604080832093909416825291909152205460ff1690565b610e036116aa565b80518015801590610e15575060328111155b610e545760405162461bcd60e51b815260206004820152601060248201526f496e76616c6964207175616e7469747960801b60448201526064016105af565b600f5460ff16610e9e5760405162461bcd60e51b8152602060048201526015602482015274436f6c6c656374696f6e206e6f742061637469766560581b60448201526064016105af565b80600c54610eac91906120ec565b341015610ef25760405162461bcd60e51b8152602060048201526014602482015273125b9cdd59999a58da595b9d081c185e5b595b9d60621b60448201526064016105af565b600b5481600954610f039190612103565b1115610f465760405162461bcd60e51b815260206004820152601260248201527145786365656473206d617820737570706c7960701b60448201526064016105af565b60005b8181101561106a576000838281518110610f6557610f65612116565b60200260200101515111610fb75760405162461bcd60e51b8152602060048201526019602482015278546f6b656e205552492063616e6e6f7420626520656d70747960381b60448201526064016105af565b60098054906000610fc78361209e565b9091555050600954610fd985826116d4565b610ffc81858481518110610fef57610fef612116565b60200260200101516116ee565b846001600160a01b0316817f06becd955c918828f6e985541acbf49cc842c9e9bd569fffc7698e721ef1357586858151811061103a5761103a612116565b602002602001015160405161104f9190611c54565b60405180910390a350806110628161209e565b915050610f49565b50600b54600954106110aa57600f805460ff191690556040517f22d0bc987814df8bd24a0398bfee03d04bc0b2372ded2e4db24e8092fb28c60d90600090a15b600081600c546110ba91906120ec565b905060006110c96064836120ca565b905060006110d782846120b7565b9050801561111b57600d546040516001600160a01b039091169082156108fc029083906000818181858888f19350505050158015611119573d6000803e3d6000fd5b505b811561116157600f546040516101009091046001600160a01b0316906108fc8415029084906000818181858888f1935050505015801561115f573d6000803e3d6000fd5b505b82341115610d3057336108fc61117785346120b7565b6040518115909202916000818181858888f1935050505015801561119f573d6000803e3d6000fd5b50505050506107846001600855565b6111b6611350565b6001600160a01b0381166111e057604051631e4fbdf760e01b8152600060048201526024016105af565b6111e98161137d565b50565b60006001600160e01b03198216632483248360e11b14806105c857506105c88261173e565b6000818152600260205260408120546001600160a01b0316806105c857604051637e27328960e01b8152600481018490526024016105af565b61091e838383600161178e565b6000828152600260205260408120546001600160a01b039081169083161561128457611284818486611894565b6001600160a01b038116156112c2576112a160008560008061178e565b6001600160a01b038116600090815260036020526040902080546000190190555b6001600160a01b038516156112f1576001600160a01b0385166000908152600360205260409020805460010190555b60008481526002602052604080822080546001600160a01b0319166001600160a01b0389811691821790925591518793918516917fddf252ad1be2c89b69c2b068fc378daa952ba7f163c4a11628f55a4df523b3ef91a4949350505050565b6007546001600160a01b031633146109885760405163118cdaa760e01b81523360048201526024016105af565b600780546001600160a01b038381166001600160a01b0319831681179093556040519116919082907f8be0079c531659141344cd1fd0a4f28419497f9722a3daafe3b4186f6b6457e090600090a35050565b6001600160a01b03821661140157604051630b61174360e31b81526001600160a01b03831660048201526024016105af565b6001600160a01b03838116600081815260056020908152604080832094871680845294825291829020805460ff191686151590811790915591519182527f17307eab39ab6107e8899845ad3d59bd9653f200f220920489ca2b5937696c31910160405180910390a3505050565b6001600160a01b0383163b1561159257604051630a85bd0160e11b81526001600160a01b0384169063150b7a02906114b090889088908790879060040161212c565b6020604051808303816000875af19250505080156114eb575060408051601f3d908101601f191682019092526114e891810190612169565b60015b611554573d808015611519576040519150601f19603f3d011682016040523d82523d6000602084013e61151e565b606091505b50805160000361154c57604051633250574960e11b81526001600160a01b03851660048201526024016105af565b805181602001fd5b6001600160e01b03198116630a85bd0160e11b1461159057604051633250574960e11b81526001600160a01b03851660048201526024016105af565b505b5050505050565b60606115a482611211565b50600082815260066020526040812080546115be9061204e565b80601f01602080910402602001604051908101604052809291908181526020018280546115ea9061204e565b80156116375780601f1061160c57610100808354040283529160200191611637565b820191906000526020600020905b81548152906001019060200180831161161a57829003601f168201915b50505050509050600061165560408051602081019091526000815290565b90508051600003611667575092915050565b815115611699578082604051602001611681929190612186565b60405160208183030381529060405292505050919050565b6116a2846118f8565b949350505050565b6002600854036116cd57604051633ee5aeb560e01b815260040160405180910390fd5b6002600855565b61078482826040518060200160405280600081525061196d565b600082815260066020526040902061170682826121fb565b506040518281527ff8e1a15aba9398e019f0b49df1a4fde98ee17ae345cb5f6b5e2c27f5033e8ce79060200160405180910390a15050565b60006001600160e01b031982166380ac58cd60e01b148061176f57506001600160e01b03198216635b5e139f60e01b145b806105c857506301ffc9a760e01b6001600160e01b03198316146105c8565b80806117a257506001600160a01b03821615155b156118645760006117b284611211565b90506001600160a01b038316158015906117de5750826001600160a01b0316816001600160a01b031614155b80156117f157506117ef8184610dcd565b155b1561181a5760405163a9fbf51f60e01b81526001600160a01b03841660048201526024016105af565b81156118625783856001600160a01b0316826001600160a01b03167f8c5be1e5ebec7d5bd14f71427d1e84f3dd0314c0f7b2291e5b200ac8c7c3b92560405160405180910390a45b505b5050600090815260046020526040902080546001600160a01b0319166001600160a01b0392909216919091179055565b61189f838383611985565b61091e576001600160a01b0383166118cd57604051637e27328960e01b8152600481018290526024016105af565b60405163177e802f60e01b81526001600160a01b0383166004820152602481018290526044016105af565b606061190382611211565b50600061191b60408051602081019091526000815290565b9050600081511161193b5760405180602001604052806000815250611966565b80611945846119e8565b604051602001611956929190612186565b6040516020818303038152906040525b9392505050565b6119778383611a7b565b61091e33600085858561146e565b60006001600160a01b038316158015906116a25750826001600160a01b0316846001600160a01b031614806119bf57506119bf8484610dcd565b806116a25750506000908152600460205260409020546001600160a01b03908116911614919050565b606060006119f583611ae0565b600101905060008167ffffffffffffffff811115611a1557611a15611dbc565b6040519080825280601f01601f191660200182016040528015611a3f576020820181803683370190505b5090508181016020015b600019016f181899199a1a9b1b9c1cb0b131b232b360811b600a86061a8153600a8504945084611a4957509392505050565b6001600160a01b038216611aa557604051633250574960e11b8152600060048201526024016105af565b6000611ab383836000611257565b90506001600160a01b0381161561091e576040516339e3563760e11b8152600060048201526024016105af565b60008072184f03e93ff9f4daa797ed6e38ed64bf6a1f0160401b8310611b1f5772184f03e93ff9f4daa797ed6e38ed64bf6a1f0160401b830492506040015b6d04ee2d6d415b85acef81000000008310611b4b576d04ee2d6d415b85acef8100000000830492506020015b662386f26fc100008310611b6957662386f26fc10000830492506010015b6305f5e1008310611b81576305f5e100830492506008015b6127108310611b9557612710830492506004015b60648310611ba7576064830492506002015b600a83106105c85760010192915050565b600060208284031215611bca57600080fd5b5035919050565b6001600160e01b0319811681146111e957600080fd5b600060208284031215611bf957600080fd5b813561196681611bd1565b60005b83811015611c1f578181015183820152602001611c07565b50506000910152565b60008151808452611c40816020860160208601611c04565b601f01601f19169290920160200192915050565b6020815260006119666020830184611c28565b80356001600160a01b0381168114611c7e57600080fd5b919050565b60008060408385031215611c9657600080fd5b611c9f83611c67565b946020939093013593505050565b6000610120808352611cc18184018d611c28565b90508281036020840152611cd5818c611c28565b90508281036040840152611ce9818b611c28565b60608401999099525050608081019590955260a08501939093526001600160a01b039190911660c084015260e08301521515610100909101529392505050565b600080600060608486031215611d3e57600080fd5b611d4784611c67565b9250611d5560208501611c67565b9150604084013590509250925092565b600060208284031215611d7757600080fd5b61196682611c67565b60008060408385031215611d9357600080fd5b611d9c83611c67565b915060208301358015158114611db157600080fd5b809150509250929050565b634e487b7160e01b600052604160045260246000fd5b604051601f8201601f1916810167ffffffffffffffff81118282101715611dfb57611dfb611dbc565b604052919050565b600067ffffffffffffffff831115611e1d57611e1d611dbc565b611e30601f8401601f1916602001611dd2565b9050828152838383011115611e4457600080fd5b828260208301376000602084830101529392505050565b60008060008060808587031215611e7157600080fd5b611e7a85611c67565b9350611e8860208601611c67565b925060408501359150606085013567ffffffffffffffff811115611eab57600080fd5b8501601f81018713611ebc57600080fd5b611ecb87823560208401611e03565b91505092959194509250565b600082601f830112611ee857600080fd5b61196683833560208501611e03565b60008060408385031215611f0a57600080fd5b611f1383611c67565b9150602083013567ffffffffffffffff811115611f2f57600080fd5b611f3b85828601611ed7565b9150509250929050565b60008060408385031215611f5857600080fd5b611f6183611c67565b9150611f6f60208401611c67565b90509250929050565b60008060408385031215611f8b57600080fd5b611f9483611c67565b915060208084013567ffffffffffffffff80821115611fb257600080fd5b818601915086601f830112611fc657600080fd5b813581811115611fd857611fd8611dbc565b8060051b611fe7858201611dd2565b918252838101850191858101908a84111561200157600080fd5b86860192505b8383101561203d5782358581111561201f5760008081fd5b61202d8c89838a0101611ed7565b8352509186019190860190612007565b809750505050505050509250929050565b600181811c9082168061206257607f821691505b60208210810361208257634e487b7160e01b600052602260045260246000fd5b50919050565b634e487b7160e01b600052601160045260246000fd5b6000600182016120b0576120b0612088565b5060010190565b818103818111156105c8576105c8612088565b6000826120e757634e487b7160e01b600052601260045260246000fd5b500490565b80820281158282048414176105c8576105c8612088565b808201808211156105c8576105c8612088565b634e487b7160e01b600052603260045260246000fd5b6001600160a01b038581168252841660208201526040810183905260806060820181905260009061215f90830184611c28565b9695505050505050565b60006020828403121561217b57600080fd5b815161196681611bd1565b60008351612198818460208801611c04565b8351908301906121ac818360208801611c04565b01949350505050565b601f82111561091e57600081815260208120601f850160051c810160208610156121dc5750805b601f850160051c820191505b81811015611590578281556001016121e8565b815167ffffffffffffffff81111561221557612215611dbc565b61222981612223845461204e565b846121b5565b602080601f83116001811461225e57600084156122465750858301515b600019600386901b1c1916600185901b178555611590565b600085815260208120601f198616915b8281101561228d5788860151825594840194600190910190840161226e565b50858210156122ab5787850151600019600388901b60f8161c191681555b5050505050600190811b0190555056fea264697066735822122051e78bf037ae923c7f8ce5291288cc75ad3725915e8cfb35749f65787aed50c764736f6c63430008140033",
  "linkReferences": {},
  "deployedLinkReferences": {}
}